{
  "contractName": "lottery",
  "abi": [
    {
      "constant": true,
      "inputs": [],
      "name": "manager",
      "outputs": [
        {
          "name": "",
          "type": "address"
        }
      ],
      "payable": false,
      "stateMutability": "view",
      "type": "function",
      "signature": "0x481c6a75"
    },
    {
      "constant": true,
      "inputs": [
        {
          "name": "",
          "type": "uint256"
        }
      ],
      "name": "players",
      "outputs": [
        {
          "name": "",
          "type": "address"
        }
      ],
      "payable": false,
      "stateMutability": "view",
      "type": "function",
      "signature": "0xf71d96cb"
    },
    {
      "inputs": [],
      "payable": false,
      "stateMutability": "nonpayable",
      "type": "constructor",
      "signature": "constructor"
    },
    {
      "constant": false,
      "inputs": [],
      "name": "enter",
      "outputs": [],
      "payable": true,
      "stateMutability": "payable",
      "type": "function",
      "signature": "0xe97dcb62"
    },
    {
      "constant": false,
      "inputs": [],
      "name": "pickWinner",
      "outputs": [],
      "payable": false,
      "stateMutability": "nonpayable",
      "type": "function",
      "signature": "0x5d495aea"
    },
    {
      "constant": true,
      "inputs": [],
      "name": "getManager",
      "outputs": [
        {
          "name": "",
          "type": "address"
        }
      ],
      "payable": false,
      "stateMutability": "view",
      "type": "function",
      "signature": "0xd5009584"
    },
    {
      "constant": true,
      "inputs": [],
      "name": "getPlayers",
      "outputs": [
        {
          "name": "",
          "type": "address[]"
        }
      ],
      "payable": false,
      "stateMutability": "view",
      "type": "function",
      "signature": "0x8b5b9ccc"
    },
    {
      "constant": true,
      "inputs": [],
      "name": "getLotteryBalance",
      "outputs": [
        {
          "name": "",
          "type": "uint256"
        }
      ],
      "payable": false,
      "stateMutability": "view",
      "type": "function",
      "signature": "0x60654e47"
    }
  ],
  "bytecode": "0x608060405234801561001057600080fd5b50336000806101000a81548173ffffffffffffffffffffffffffffffffffffffff021916908373ffffffffffffffffffffffffffffffffffffffff1602179055506107a8806100606000396000f3fe608060405260043610610083576000357c0100000000000000000000000000000000000000000000000000000000900463ffffffff168063481c6a75146100885780635d495aea146100df57806360654e47146100f65780638b5b9ccc14610121578063d50095841461018d578063e97dcb62146101e4578063f71d96cb146101ee575b600080fd5b34801561009457600080fd5b5061009d610269565b604051808273ffffffffffffffffffffffffffffffffffffffff1673ffffffffffffffffffffffffffffffffffffffff16815260200191505060405180910390f35b3480156100eb57600080fd5b506100f461028e565b005b34801561010257600080fd5b5061010b6103e6565b6040518082815260200191505060405180910390f35b34801561012d57600080fd5b50610136610405565b6040518080602001828103825283818151815260200191508051906020019060200280838360005b8381101561017957808201518184015260208101905061015e565b505050509050019250505060405180910390f35b34801561019957600080fd5b506101a2610493565b604051808273ffffffffffffffffffffffffffffffffffffffff1673ffffffffffffffffffffffffffffffffffffffff16815260200191505060405180910390f35b6101ec6104bc565b005b3480156101fa57600080fd5b506102276004803603602081101561021157600080fd5b81019080803590602001909291905050506105ce565b604051808273ffffffffffffffffffffffffffffffffffffffff1673ffffffffffffffffffffffffffffffffffffffff16815260200191505060405180910390f35b6000809054906101000a900473ffffffffffffffffffffffffffffffffffffffff1681565b6000809054906101000a900473ffffffffffffffffffffffffffffffffffffffff1673ffffffffffffffffffffffffffffffffffffffff163373ffffffffffffffffffffffffffffffffffffffff161415156102e957600080fd5b60006001805490506102f961060c565b81151561030257fe5b06905060018181548110151561031457fe5b9060005260206000200160009054906101000a900473ffffffffffffffffffffffffffffffffffffffff1673ffffffffffffffffffffffffffffffffffffffff166108fc3073ffffffffffffffffffffffffffffffffffffffff16319081150290604051600060405180830381858888f1935050505015801561039b573d6000803e3d6000fd5b5060006040519080825280602002602001820160405280156103cc5781602001602082028038833980820191505090505b50600190805190602001906103e29291906106af565b5050565b60003073ffffffffffffffffffffffffffffffffffffffff1631905090565b6060600180548060200260200160405190810160405280929190818152602001828054801561048957602002820191906000526020600020905b8160009054906101000a900473ffffffffffffffffffffffffffffffffffffffff1673ffffffffffffffffffffffffffffffffffffffff168152602001906001019080831161043f575b5050505050905090565b60008060009054906101000a900473ffffffffffffffffffffffffffffffffffffffff16905090565b60008090505b600180549050811015610550576001818154811015156104de57fe5b9060005260206000200160009054906101000a900473ffffffffffffffffffffffffffffffffffffffff1673ffffffffffffffffffffffffffffffffffffffff163373ffffffffffffffffffffffffffffffffffffffff161415151561054357600080fd5b80806001019150506104c2565b50662386f26fc100003411151561056657600080fd5b60013390806001815401808255809150509060018203906000526020600020016000909192909190916101000a81548173ffffffffffffffffffffffffffffffffffffffff021916908373ffffffffffffffffffffffffffffffffffffffff16021790555050565b6001818154811015156105dd57fe5b906000526020600020016000915054906101000a900473ffffffffffffffffffffffffffffffffffffffff1681565b60004442600160405160200180848152602001838152602001828054801561068957602002820191906000526020600020905b8160009054906101000a900473ffffffffffffffffffffffffffffffffffffffff1673ffffffffffffffffffffffffffffffffffffffff168152602001906001019080831161063f575b505093505050506040516020818303038152906040528051906020012060019004905090565b828054828255906000526020600020908101928215610728579160200282015b828111156107275782518260006101000a81548173ffffffffffffffffffffffffffffffffffffffff021916908373ffffffffffffffffffffffffffffffffffffffff160217905550916020019190600101906106cf565b5b5090506107359190610739565b5090565b61077991905b8082111561077557600081816101000a81549073ffffffffffffffffffffffffffffffffffffffff02191690555060010161073f565b5090565b9056fea165627a7a72305820fa5f10a3f29c29672d8e35fd065336dc347e3b87336c8f2e7fba0edbfca2a5f90029",
  "source": "pragma  solidity ^0.5.0;\n\ncontract lottery {\n   address public manager;\n   address payable[] public players;\n\n   constructor () public {\n       manager = msg.sender;\n   }\n   function enter() public payable{\n       //同じ人がなんども参加できないようにしましょう\n       for(uint i=0; i< players.length; i++) {\n           require(msg.sender != players[i]);\n       }\n       //0.1ETH以上の参加費を指定しよう\n       require(msg.value > 0.01 ether);\n       players.push(msg.sender);\n   }\n   function random() private view returns (uint) {\n       return uint(keccak256(abi.encodePacked(block.difficulty, now, players)));\n   }\n   function pickWinner() public restricted(){\n       uint index = random() % players.length;\n       players[index].transfer(address(this).balance);\n       //抽選の後再度抽選ができるようにメンバーを削除しましょう\n       players = new address payable[](0);\n   }\n   //コントラクト作成者にしか呼び出せない修飾子を作ろう\n   modifier restricted() {\n       require(msg.sender == manager);\n       _;\n   }\n\n   function getManager() public view returns (address) {\n       return manager;\n   }\n\n   function getPlayers() public view returns (address payable[] memory) {\n       return players;\n   }\n   //抽選で溜まっている金額を返す関数を書こう\n   function getLotteryBalance() public view returns(uint){\n       return address(this).balance;\n   }\n}",
  "sourcePath": "/Users/tomoaki/lottery/lottery-contract/contracts/lottery.sol",
  "compiler": {
    "name": "solc",
    "version": "0.5.0+commit.1d4f565a.Emscripten.clang"
  },
  "schemaVersion": "3.0.8",
  "updatedAt": "2019-05-26T00:09:46.662Z",
  "devdoc": {
    "methods": {}
  },
  "userdoc": {
    "methods": {}
  }
}