{
  "contractName": "lottery",
  "abi": [
    {
      "constant": true,
      "inputs": [],
      "name": "manager",
      "outputs": [
        {
          "name": "",
          "type": "address"
        }
      ],
      "payable": false,
      "stateMutability": "view",
      "type": "function",
      "signature": "0x481c6a75"
    },
    {
      "constant": true,
      "inputs": [
        {
          "name": "",
          "type": "uint256"
        }
      ],
      "name": "players",
      "outputs": [
        {
          "name": "",
          "type": "address"
        }
      ],
      "payable": false,
      "stateMutability": "view",
      "type": "function",
      "signature": "0xf71d96cb"
    },
    {
      "inputs": [],
      "payable": false,
      "stateMutability": "nonpayable",
      "type": "constructor",
      "signature": "constructor"
    },
    {
      "constant": false,
      "inputs": [],
      "name": "enter",
      "outputs": [],
      "payable": true,
      "stateMutability": "payable",
      "type": "function",
      "signature": "0xe97dcb62"
    },
    {
      "constant": false,
      "inputs": [],
      "name": "pickWinner",
      "outputs": [],
      "payable": false,
      "stateMutability": "nonpayable",
      "type": "function",
      "signature": "0x5d495aea"
    },
    {
      "constant": true,
      "inputs": [],
      "name": "getPlayers",
      "outputs": [
        {
          "name": "",
          "type": "address[]"
        }
      ],
      "payable": false,
      "stateMutability": "view",
      "type": "function",
      "signature": "0x8b5b9ccc"
    },
    {
      "constant": true,
      "inputs": [],
      "name": "getLotteryBalance",
      "outputs": [
        {
          "name": "",
          "type": "uint256"
        }
      ],
      "payable": false,
      "stateMutability": "view",
      "type": "function",
      "signature": "0x60654e47"
    }
  ],
  "bytecode": "0x608060405234801561001057600080fd5b50336000806101000a81548173ffffffffffffffffffffffffffffffffffffffff021916908373ffffffffffffffffffffffffffffffffffffffff16021790555061071d806100606000396000f3fe608060405260043610610078576000357c0100000000000000000000000000000000000000000000000000000000900463ffffffff168063481c6a751461007d5780635d495aea146100d457806360654e47146100eb5780638b5b9ccc14610116578063e97dcb6214610182578063f71d96cb1461018c575b600080fd5b34801561008957600080fd5b50610092610207565b604051808273ffffffffffffffffffffffffffffffffffffffff1673ffffffffffffffffffffffffffffffffffffffff16815260200191505060405180910390f35b3480156100e057600080fd5b506100e961022c565b005b3480156100f757600080fd5b50610100610384565b6040518082815260200191505060405180910390f35b34801561012257600080fd5b5061012b6103a3565b6040518080602001828103825283818151815260200191508051906020019060200280838360005b8381101561016e578082015181840152602081019050610153565b505050509050019250505060405180910390f35b61018a610431565b005b34801561019857600080fd5b506101c5600480360360208110156101af57600080fd5b8101908080359060200190929190505050610543565b604051808273ffffffffffffffffffffffffffffffffffffffff1673ffffffffffffffffffffffffffffffffffffffff16815260200191505060405180910390f35b6000809054906101000a900473ffffffffffffffffffffffffffffffffffffffff1681565b6000809054906101000a900473ffffffffffffffffffffffffffffffffffffffff1673ffffffffffffffffffffffffffffffffffffffff163373ffffffffffffffffffffffffffffffffffffffff1614151561028757600080fd5b6000600180549050610297610581565b8115156102a057fe5b0690506001818154811015156102b257fe5b9060005260206000200160009054906101000a900473ffffffffffffffffffffffffffffffffffffffff1673ffffffffffffffffffffffffffffffffffffffff166108fc3073ffffffffffffffffffffffffffffffffffffffff16319081150290604051600060405180830381858888f19350505050158015610339573d6000803e3d6000fd5b50600060405190808252806020026020018201604052801561036a5781602001602082028038833980820191505090505b5060019080519060200190610380929190610624565b5050565b60003073ffffffffffffffffffffffffffffffffffffffff1631905090565b6060600180548060200260200160405190810160405280929190818152602001828054801561042757602002820191906000526020600020905b8160009054906101000a900473ffffffffffffffffffffffffffffffffffffffff1673ffffffffffffffffffffffffffffffffffffffff16815260200190600101908083116103dd575b5050505050905090565b60008090505b6001805490508110156104c55760018181548110151561045357fe5b9060005260206000200160009054906101000a900473ffffffffffffffffffffffffffffffffffffffff1673ffffffffffffffffffffffffffffffffffffffff163373ffffffffffffffffffffffffffffffffffffffff16141515156104b857600080fd5b8080600101915050610437565b50662386f26fc10000341115156104db57600080fd5b60013390806001815401808255809150509060018203906000526020600020016000909192909190916101000a81548173ffffffffffffffffffffffffffffffffffffffff021916908373ffffffffffffffffffffffffffffffffffffffff16021790555050565b60018181548110151561055257fe5b906000526020600020016000915054906101000a900473ffffffffffffffffffffffffffffffffffffffff1681565b6000444260016040516020018084815260200183815260200182805480156105fe57602002820191906000526020600020905b8160009054906101000a900473ffffffffffffffffffffffffffffffffffffffff1673ffffffffffffffffffffffffffffffffffffffff16815260200190600101908083116105b4575b505093505050506040516020818303038152906040528051906020012060019004905090565b82805482825590600052602060002090810192821561069d579160200282015b8281111561069c5782518260006101000a81548173ffffffffffffffffffffffffffffffffffffffff021916908373ffffffffffffffffffffffffffffffffffffffff16021790555091602001919060010190610644565b5b5090506106aa91906106ae565b5090565b6106ee91905b808211156106ea57600081816101000a81549073ffffffffffffffffffffffffffffffffffffffff0219169055506001016106b4565b5090565b9056fea165627a7a723058209f26c72ecd2811dc6ab0956417062d1281c7bbbff609900454694673c22a97720029",
  "source": "pragma  solidity ^0.5.0;\n\ncontract lottery {\n   address public manager;\n   address payable[] public players;\n\n   constructor () public {\n       manager = msg.sender;\n   }\n   function enter() public payable{\n       //同じ人がなんども参加できないようにしましょう\n       for(uint i=0; i< players.length; i++) {\n           require(msg.sender != players[i]);\n       }\n       //0.1ETH以上の参加費を指定しよう\n       require(msg.value > 0.01 ether);\n       players.push(msg.sender);\n   }\n   function random() private view returns (uint) {\n       return uint(keccak256(abi.encodePacked(block.difficulty, now, players)));\n   }\n   function pickWinner() public restricted(){\n       uint index = random() % players.length;\n       players[index].transfer(address(this).balance);\n       //抽選の後再度抽選ができるようにメンバーを削除しましょう\n       players = new address payable[](0);\n   }\n   //コントラクト作成者にしか呼び出せない修飾子を作ろう\n   modifier restricted() {\n       require(msg.sender == manager);\n       _;\n   }\n   function getPlayers() public view returns (address payable[] memory) {\n       return players;\n   }\n   //抽選で溜まっている金額を返す関数を書こう\n   function getLotteryBalance() public view returns(uint){\n       return address(this).balance;\n   }\n}",
  "sourcePath": "/Users/tomoaki/lottery/lottery-contract/contracts/lottery.sol",
  "compiler": {
    "name": "solc",
    "version": "0.5.0+commit.1d4f565a.Emscripten.clang"
  },
  "schemaVersion": "3.0.8",
  "updatedAt": "2019-05-18T13:24:41.153Z",
  "devdoc": {
    "methods": {}
  },
  "userdoc": {
    "methods": {}
  }
}